:100000000C9462000C948A000C948A000C948A0070
:100010000C948A000C948A000C948A000C948A0038
:100020000C948A000C948A000C948A000C948A0028
:100030000C948A000C948A000C948A000C948A0018
:100040000C9442030C948A000C9411020C949402B8
:100050000C948A000C948A000C948A000C948A00F8
:100060000C948A000C948A000000000024002700F1
:100070002A0000000000250028002B0000000000DE
:1000800023002600290004040404040404040202DA
:100090000202020203030303030301020408102007
:1000A0004080010204081020010204081020000012
:1000B0000007000201000003040600000000000029
:1000C0000000470211241FBECFEFD8E0DEBFCDBF36
:1000D00011E0A0E0B1E0ECE7FAE002C005900D927B
:1000E000A232B107D9F711E0A2E2B1E001C01D923E
:1000F000AC3CB107E1F710E0C4ECD0E004C02297BB
:10010000FE010E943805C23CD107C9F70E943303A3
:100110000C943C050C94000085E00E94C004909370
:10012000230180932201892BD9F486E291E060E0DB
:1001300071E00E94200320E030E080912401909142
:100140002501892B11F421E030E030932501209323
:10015000240160E0232B09F461E086E00E946C0436
:1001600068EE73E080E090E00E94C503089585E0AA
:1001700060E00E942D0486E061E00E942D0485E08D
:1001800061E00E946C0486E060E00E946C0486E2FC
:1001900091E040E855E260E070E026E00E94010155
:1001A0000895DC015C968C915C97FD01E80FF11DD0
:1001B000E35AFF4F20815C968C915C9790E001960A
:1001C0008F7390705C968C935C975696ED91FC9132
:1001D000579720835096ED91FC91519780818064D0
:1001E00080835B969C915B975C968C915C9798174B
:1001F00039F45296ED91FC91539780818F7D8083E5
:100200000895DF92EF92FF920F931F93CF93DF93A6
:10021000EC017A018B01D22EE889F98982E0808392
:10022000403081EE580780E0680780E07807A1F051
:1002300060E079E08DE390E0A80197010E94140549
:10024000215030404040504056954795379527956E
:1002500080E12030380798F0E889F989108260E859
:1002600074E88EE190E0A80197010E9414052150E6
:100270003040404050405695479537952795EC853E
:10028000FD853083EE85FF852083188EEC89FD89FE
:10029000D082EA89FB89808180618083EA89FB8939
:1002A000808188608083EA89FB898081806880837F
:1002B000EA89FB8980818F7D8083DF91CF911F91B7
:1002C0000F91FF90EF90DF900895FC01218D828DBA
:1002D00030E0205C3F4F281B31092F733070C9017B
:1002E0000895FC01918D828D981719F42FEF3FEF3F
:1002F00006C0828DE80FF11D858D282F30E0C901E1
:100300000895DC0159969C9159975A968C915A9769
:10031000981719F42FEF3FEF10C05A968C915A9707
:10032000FD01E80FF11D958D5A968C915A978F5FBC
:100330008F735A968C93292F30E0C9010895CF937B
:10034000DF93EC01888D882361F419C08C9185FFBF
:100350000AC0E889F989808185FF05C0CE010E9425
:10036000D100AA89BB898C9185FD05C0E889F989EE
:10037000808186FD04C00FB607FEE8CFF4CFDF9181
:10038000CF9108950F931F93CF93DF93EC01062F26
:100390009B8D8C8D981791F5E889F989808185FF6F
:1003A0002DC0EE89FF896083E889F98980818064A6
:1003B00080831DC00FB607FC08C0E889F9898081D9
:1003C00085FF03C0CE010E94D1008C8D181791F3D8
:1003D0008B8DFE01E80FF11DE35AFF4F00831B8F49
:1003E000EA89FB8980818062808381E0888F81E057
:1003F00090E0DF91CF911F910F9108951B8D1F5FAA
:100400001F73E3CF8AE892E0892B51F080E090E0FF
:10041000892B31F00E948A02882311F00E9400008B
:1004200008951F920F920FB60F9211242F938F935E
:100430009F93EF93FF93E0913601F0913701808114
:1004400082FD16C0E0913C01F0913D012081909128
:100450003F019F5F9F7380914001981771F0E09179
:100460003F01F0E0EA5DFE4F258F90933F0105C00C
:10047000E0913C01F0913D01E081FF91EF919F916E
:100480008F912F910F900FBE0F901F901895109283
:1004900029011092280188EE93E0A0E0B0E080935B
:1004A0002A0190932B01A0932C01B0932D0186E19A
:1004B00091E0909327018093260185EC90E0909342
:1004C00033018093320184EC90E090933501809366
:1004D000340180EC90E0909337018093360181ECF9
:1004E00090E0909339018093380182EC90E09093F2
:1004F0003B0180933A0186EC90E090933D0180931C
:100500003C0110923F011092400110924101109263
:100510004201089586E291E00E94650120E0892B66
:1005200009F021E0822F08951F920F920FB60F92CB
:1005300011242F933F934F935F936F937F938F93E8
:100540009F93AF93BF93EF93FF9386E291E00E9456
:10055000D100FF91EF91BF91AF919F918F917F91CA
:100560006F915F914F913F912F910F900FBE0F9020
:100570001F901895CF92DF92EF92FF920F931F93E7
:10058000CF93DF937C016B018A01C0E0D0E00FC004
:10059000D6016D916D01D701ED91FC910190F08133
:1005A000E02DC7010995C80FD91F01501040011552
:1005B000110571F7CE01DF91CF911F910F91FF903F
:1005C000EF90DF90CF900895EF92FF920F931F93DB
:1005D0008C01DC01ED91FC910190F081E02D6DE04A
:1005E00009957C01D801ED91FC910190F081E02DFD
:1005F000C8016AE009959C012E0D3F1DC9011F919C
:100600000F91FF90EF900895CF93DF93EC01611568
:10061000710519F420E030E00FC0DB010D900020DF
:10062000E9F71197A61BB70BE881F9810280F381E6
:10063000E02DAD0109959C01C901DF91CF9108958D
:10064000EF92FF920F931F937C010E9404038C0191
:10065000C7010E94E402080F191FC8011F910F91E2
:10066000FF90EF900895CF93DF930E948A030E943A
:10067000B700C2E0D2E00E948C002097E1F30E9414
:100680000202F9CF1F920F920FB60F9211242F93EF
:100690003F938F939F93AF93BF938091C7019091A6
:1006A000C801A091C901B091CA013091CB01019656
:1006B000A11DB11D232F2D5F2D3720F02D57019641
:1006C000A11DB11D2093CB018093C7019093C80158
:1006D000A093C901B093CA018091C3019091C40154
:1006E000A091C501B091C6010196A11DB11D8093D5
:1006F000C3019093C401A093C501B093C601BF91FB
:10070000AF919F918F913F912F910F900FBE0F90BE
:100710001F901895789484B5826084BD84B58160FB
:1007200084BD85B5826085BD85B5816085BDEEE6F9
:10073000F0E0808181608083E1E8F0E010828081D8
:1007400082608083808181608083E0E8F0E0808146
:1007500081608083E1EBF0E0808184608083E0EB66
:10076000F0E0808181608083EAE7F0E0808184604E
:1007700080838081826080838081816080838081AA
:10078000806880831092C1000895EF92FF920F93CA
:100790001F93CF93DF937B018C013FB7F894809137
:1007A000C3019091C401A091C501B091C60126B5C5
:1007B000A89B05C02F3F19F00196A11DB11D3FBF99
:1007C000BA2FA92F982F8827820F911DA11DB11D27
:1007D00052E0880F991FAA1FBB1F5A95D1F7EC0151
:1007E00030C00E9413053FB7F8948091C3019091E7
:1007F000C401A091C501B091C60126B5A89B05C052
:100800002F3F19F00196A11DB11D3FBFBA2FA92F8F
:10081000982F8827820F911DA11DB11D32E0880FEE
:10082000991FAA1FBB1F3A95D1F78C1B9D0B885EA1
:100830009340B8F20894E108F10801091109C85180
:10084000DC4FE114F1040105110559F6DF91CF9158
:100850001F910F91FF90EF900895CF93DF93482F52
:1008600050E0CA0186569F4FFC0134914A575F4FB2
:10087000FA018491882369F190E0880F991FFC01A7
:10088000E859FF4FA591B491FC01EE58FF4FC59177
:10089000D491662351F42FB7F8948C91932F9095AF
:1008A00089238C93888189230BC0623061F42FB730
:1008B000F8948C91932F909589238C938881832B26
:1008C00088832FBF06C09FB7F8948C91832B8C939D
:1008D0009FBFDF91CF910895482F50E0CA01825504
:1008E0009F4FFC012491CA0186569F4FFC019491B1
:1008F0004A575F4FFA013491332309F440C0222351
:1009000051F1233071F0243028F42130A1F022304D
:1009100011F514C02630B1F02730C1F02430D9F4DD
:1009200004C0809180008F7703C0809180008F7D0C
:100930008093800010C084B58F7702C084B58F7D0E
:1009400084BD09C08091B0008F7703C08091B00052
:100950008F7D8093B000E32FF0E0EE0FFF1FEE5885
:10096000FF4FA591B4912FB7F894662321F48C9191
:100970009095892302C08C91892B8C932FBF089569
:10098000682F70E0CB0182559F4FFC012491CB0171
:1009900086569F4FFC0144916A577F4FFB0194910B
:1009A000992319F420E030E03CC0222351F1233098
:1009B00071F0243028F42130A1F0223011F514C058
:1009C0002630B1F02730C1F02430D9F404C0809132
:1009D00080008F7703C0809180008F7D809380009E
:1009E00010C084B58F7702C084B58F7D84BD09C0E7
:1009F0008091B0008F7703C08091B0008F7D80938D
:100A0000B000892F90E0880F991F84589F4FFC01F8
:100A1000A591B4918C9120E030E0842311F021E085
:100A200030E0C90108950895A1E21A2EAA1BBB1B4C
:100A3000FD010DC0AA1FBB1FEE1FFF1FA217B307AA
:100A4000E407F50720F0A21BB30BE40BF50B661FC0
:100A5000771F881F991F1A9469F760957095809584
:100A600090959B01AC01BD01CF010895EE0FFF1FD2
:0C0A70000590F491E02D0994F894FFCF5C
:100A7C00424F54414F205052455353494F4E4144DD
:100A8C004F0000000000C201BA0265018101710132
:020A9C009F01B8
:00000001FF
