:100000000C9462000C948A000C948A000C948A0070
:100010000C948A000C948A000C948A000C948A0038
:100020000C948A000C948A000C948A000C948A0028
:100030000C948A000C948A000C948A000C948A0018
:100040000C9448030C948A000C9417020C949A02A6
:100050000C948A000C948A000C948A000C948A00F8
:100060000C948A000C948A000000000024002700F1
:100070002A0000000000250028002B0000000000DE
:1000800023002600290004040404040404040202DA
:100090000202020203030303030301020408102007
:1000A0004080010204081020010204081020000012
:1000B0000007000201000003040600000000000029
:1000C00000004D0211241FBECFEFD8E0DEBFCDBF30
:1000D00011E0A0E0B1E0E2EEF9E002C005900D927F
:1000E000A037B107D9F712E0A0E7B1E001C01D9237
:1000F000A731B107E1F710E0C4ECD0E004C02297CB
:10010000FE010E94EB04C23CD107C9F70E943903EB
:100110000C94EF040C94000081E791E060E071E042
:100120000E94260381E791E00E946B01892B51F127
:1001300081E791E00E948701682F80937001772703
:1001400067FD7095605D7E4F81E791E00E94260318
:1001500080917001813619F08236A1F409C08DE0DA
:1001600061E00E94720481E791E061E471E008C0FF
:100170008DE060E00E94720481E791E06FE471E03D
:100180000E94260368EE73E080E090E00E94CB03BB
:1001900008958DE061E00E94330481E791E040E83A
:1001A00055E260E070E026E00E9407010895DC015E
:1001B0005C968C915C97FD01E80FF11DE35AFF4FAF
:1001C00020815C968C915C9790E001968F73907083
:1001D0005C968C935C975696ED91FC915797208393
:1001E0005096ED91FC9151978081806480835B965D
:1001F0009C915B975C968C915C97981739F452961A
:10020000ED91FC91539780818F7D80830895DF92DB
:10021000EF92FF920F931F93CF93DF93EC017A013C
:100220008B01D22EE889F98982E08083403081EE0B
:10023000580780E0680780E07807A1F060E079E087
:100240008DE390E0A80197010E94C704215030403F
:1002500040405040569547953795279580E120308E
:10026000380798F0E889F989108260E874E88EE12F
:1002700090E0A80197010E94C704215030404040FF
:1002800050405695479537952795EC85FD853083E9
:10029000EE85FF852083188EEC89FD89D082EA895E
:1002A000FB89808180618083EA89FB898081886005
:1002B0008083EA89FB89808180688083EA89FB8961
:1002C00080818F7D8083DF91CF911F910F91FF906F
:1002D000EF90DF900895FC01218D828D30E0205C4D
:1002E0003F4F281B31092F733070C9010895FC015D
:1002F000918D828D981719F42FEF3FEF06C0828DF4
:10030000E80FF11D858D282F30E0C9010895DC012B
:1003100059969C9159975A968C915A97981719F417
:100320002FEF3FEF10C05A968C915A97FD01E80FBE
:10033000F11D958D5A968C915A978F5F8F735A96AF
:100340008C93292F30E0C9010895CF93DF93EC01FE
:10035000888D882361F419C08C9185FF0AC0E889D3
:10036000F989808185FF05C0CE010E94D700AA8946
:10037000BB898C9185FD05C0E889F989808186FD5E
:1003800004C00FB607FEE8CFF4CFDF91CF910895F8
:100390000F931F93CF93DF93EC01062F9B8D8C8DD2
:1003A000981791F5E889F989808185FF2DC0EE893C
:1003B000FF896083E889F9898081806480831DC01A
:1003C0000FB607FC08C0E889F989808185FF03C062
:1003D000CE010E94D7008C8D181791F38B8DFE01F2
:1003E000E80FF11DE35AFF4F00831B8FEA89FB8959
:1003F00080818062808381E0888F81E090E0DF915E
:10040000CF911F910F9108951B8D1F5F1F73E3CF35
:1004100080E992E0892B51F080E090E0892B31F067
:100420000E949002882311F00E94000008951F92FC
:100430000F920FB60F9211242F938F939F93EF93E8
:10044000FF93E0918101F0918201808182FD16C0CD
:10045000E0918701F0918801208190918A019F5F4E
:100460009F7380918B01981771F0E0918A01F0E001
:10047000EF58FE4F258F90938A0105C0E0918701C8
:10048000F0918801E081FF91EF919F918F912F91E1
:100490000F900FBE0F901F9018951092740110923C
:1004A000730188EE93E0A0E0B0E080937501909333
:1004B0007601A0937701B093780184E691E0909360
:1004C00072018093710185EC90E090937E0180939E
:1004D0007D0184EC90E09093800180937F0180EC1B
:1004E00090E0909382018093810181EC90E0909361
:1004F00084018093830182EC90E090938601809345
:10050000850186EC90E0909388018093870110929A
:100510008A0110928B0110928C0110928D01089526
:1005200081E791E00E946B0120E0892B09F021E036
:10053000822F08951F920F920FB60F9211242F93BE
:100540003F934F935F936F937F938F939F93AF935B
:10055000BF93EF93FF9381E791E00E94D700FF9153
:10056000EF91BF91AF919F918F917F916F915F912B
:100570004F913F912F910F900FBE0F901F901895A4
:10058000CF92DF92EF92FF920F931F93CF93DF935F
:100590007C016B018A01C0E0D0E00FC0D6016D91F3
:1005A0006D01D701ED91FC910190F081E02DC70123
:1005B0000995C80FD91F015010400115110571F799
:1005C000CE01DF91CF911F910F91FF90EF90DF90BF
:1005D000CF900895EF92FF920F931F938C01DC014F
:1005E000ED91FC910190F081E02D6DE009957C0189
:1005F000D801ED91FC910190F081E02DC8016AE0F5
:1006000009959C012E0D3F1DC9011F910F91FF906F
:10061000EF900895CF93DF93EC016115710519F404
:1006200020E030E00FC0DB010D900020E9F71197CA
:10063000A61BB70BE881F9810280F381E02DAD01A3
:1006400009959C01C901DF91CF910895EF92FF9226
:100650000F931F937C010E940A038C01C7010E9423
:10066000EA02080F191FC8011F910F91FF90EF9028
:100670000895CF93DF930E9490030E94C900C8E0C1
:10068000D2E00E948C002097E1F30E940802F9CF8B
:100690001F920F920FB60F9211242F933F938F93B7
:1006A0009F93AF93BF938091120290911302A091F8
:1006B0001402B0911502309116020196A11DB11DD0
:1006C000232F2D5F2D3720F02D570196A11DB11D31
:1006D000209316028093120290931302A0931402A7
:1006E000B093150280910E0290910F02A09110021A
:1006F000B09111020196A11DB11D80930E0290933D
:100700000F02A0931002B0931102BF91AF919F917D
:100710008F913F912F910F900FBE0F901F901895C2
:10072000789484B5826084BD84B5816084BD85B5CC
:10073000826085BD85B5816085BDEEE6F0E0808193
:1007400081608083E1E8F0E01082808182608083B4
:10075000808181608083E0E8F0E080818160808337
:10076000E1EBF0E0808184608083E0EBF0E0808169
:1007700081608083EAE7F0E080818460808380810B
:1007800082608083808181608083808180688083B3
:100790001092C1000895EF92FF920F931F93CF9391
:1007A000DF937B018C013FB7F89480910E0290910A
:1007B0000F02A0911002B091110226B5A89B05C0AE
:1007C0002F3F19F00196A11DB11D3FBFBA2FA92FD0
:1007D000982F8827820F911DA11DB11D52E0880F0F
:1007E000991FAA1FBB1F5A95D1F7EC0130C00E9478
:1007F000C6043FB7F89480910E0290910F02A09129
:100800001002B091110226B5A89B05C02F3F19F028
:100810000196A11DB11D3FBFBA2FA92F982F882780
:10082000820F911DA11DB11D32E0880F991FAA1FD3
:10083000BB1F3A95D1F78C1B9D0B885E9340B8F295
:100840000894E108F10801091109C851DC4FE114CD
:10085000F1040105110559F6DF91CF911F910F9118
:10086000FF90EF900895CF93DF93482F50E0CA0197
:1008700086569F4FFC0134914A575F4FFA0184918D
:10088000882369F190E0880F991FFC01E859FF4F18
:10089000A591B491FC01EE58FF4FC591D491662308
:1008A00051F42FB7F8948C91932F909589238C93C2
:1008B000888189230BC0623061F42FB7F8948C9142
:1008C000932F909589238C938881832B88832FBFC6
:1008D00006C09FB7F8948C91832B8C939FBFDF91B8
:1008E000CF910895482F50E0CA0182559F4FFC01D7
:1008F0002491CA0186569F4FFC0194914A575F4F3D
:10090000FA013491332309F440C0222351F12330FA
:1009100071F0243028F42130A1F0223011F514C0F8
:100920002630B1F02730C1F02430D9F404C08091D2
:1009300080008F7703C0809180008F7D809380003E
:1009400010C084B58F7702C084B58F7D84BD09C087
:100950008091B0008F7703C08091B0008F7D80932D
:10096000B000E32FF0E0EE0FFF1FEE58FF4FA59110
:10097000B4912FB7F894662321F48C919095892334
:1009800002C08C91892B8C932FBF08950895A1E20A
:100990001A2EAA1BBB1BFD010DC0AA1FBB1FEE1FF9
:1009A000FF1FA217B307E407F50720F0A21BB30B44
:1009B000E40BF50B661F771F881F991F1A9469F7C0
:1009C00060957095809590959B01AC01BD01CF011C
:1009D0000895EE0FFF1F0590F491E02D0994F8940F
:0209E000FFCF47
:1009E20044696769746520612070617261206C6975
:1009F200676172206F204C4544206520622070613F
:100A02007261204465736C69676172202121210043
:100A120056616C6F7220726563656269646F3A2019
:100A2200004C6967616E646F206F204C454400443E
:100A320065736C6967616E646F206F204C4544007A
:100A420000000000C801C0026B0187017701A50107
:00000001FF
