:100000000C9463000C948B000C948B000C948B006C
:100010000C948B000C948B000C948B000C948B0034
:100020000C948B000C948B000C948B000C948B0024
:100030000C948B000C948B000C948B000C948B0014
:100040000C948B040C948B000C94A7020C942A0340
:100050000C948B000C948B000C948B000C948B00F4
:100060000C948B000C948B000000000024002700EF
:100070002A0000000000250028002B0000000000DE
:1000800023002600290004040404040404040202DA
:100090000202020203030303030301020408102007
:1000A0004080010204081020010204081020000012
:1000B0000007000201000003040600000000000029
:1000C00000008D00DD0211241FBECFEFD8E0DEBF9F
:1000D000CDBF11E0A0E0B1E0E8E2FEE002C0059093
:1000E0000D92A232B107D9F711E0A2E2B1E001C04E
:1000F0001D92A83DB107E1F710E0C6ECD0E004C0C6
:100100002297FE010E940E07C23CD107C9F70E9448
:100110007C040C9412070C94000082E291E06CE0E5
:1001200070E04DE050E00E9448010895CF92DF92C8
:10013000EF92FF920F931F938CE060E00E94BF0547
:1001400082E090E00E94D3048CE061E00E94BF0551
:100150008AE090E00E94D3048CE060E00E94BF053A
:1001600082E291E061E070E00E940F016B017C018E
:1001700002E311E0C80160E071E00E947904C80167
:10018000B6014AE050E00E945A0468EE73E080E055
:1001900090E00E9418051F910F91FF90EF90DF9063
:1001A000CF90089582E391E040E855E260E070E08E
:1001B00026E00E9497018CE061E00E9480058DE0BE
:1001C00060E00E94800508950F931F938C01FC014D
:1001D000808160E00E94BF0582E090E00E94D3042D
:1001E000F801808161E00E94BF058AE090E00E94F2
:1001F000D304F801808160E00E94BF05F80182818C
:1002000061E020E432E44FE050E00E941306F80180
:1002100064837583868397831F910F910895CF928E
:10022000DF92EF92FF920F931F93CF93DF93EC0136
:100230006B010E94E400EC80FD800E811F81C801EB
:10024000B7012AE330E040E050E00E94F106288741
:1002500039874A875B87C801B70124E930E040E06D
:1002600050E00E94F1062C873D874E875F87CD289E
:1002700021F0288539854A855B85B901CA01DF915E
:10028000CF911F910F91FF90EF90DF90CF90089545
:10029000CF92DF92EF92FF920F931F938C01F62E75
:1002A000D72EE42EC52E862F61E00E9480058E2D6C
:1002B00060E00E948005F801F082D182E282C38270
:1002C0001F910F91FF90EF90DF90CF900895DC0188
:1002D0005C968C915C97FD01E80FF11DE35AFF4F8E
:1002E00020815C968C915C9790E001968F73907062
:1002F0005C968C935C975696ED91FC915797208372
:100300005096ED91FC9151978081806480835B963B
:100310009C915B975C968C915C97981739F45296F8
:10032000ED91FC91539780818F7D80830895DF92BA
:10033000EF92FF920F931F93CF93DF93EC017A011B
:100340008B01D22EE889F98982E08083403081EEEA
:10035000580780E0680780E07807A1F060E079E066
:100360008DE390E0A80197010E94CF062150304014
:1003700040405040569547953795279580E120306D
:10038000380798F0E889F989108260E874E88EE10E
:1003900090E0A80197010E94CF06215030404040D4
:1003A00050405695479537952795EC85FD853083C8
:1003B000EE85FF852083188EEC89FD89D082EA893D
:1003C000FB89808180618083EA89FB8980818860E4
:1003D0008083EA89FB89808180688083EA89FB8940
:1003E00080818F7D8083DF91CF911F910F91FF904E
:1003F000EF90DF900895FC01218D828D30E0205C2C
:100400003F4F281B31092F733070C9010895FC013B
:10041000918D828D981719F42FEF3FEF06C0828DD2
:10042000E80FF11D858D282F30E0C9010895DC010A
:1004300059969C9159975A968C915A97981719F4F6
:100440002FEF3FEF10C05A968C915A97FD01E80F9D
:10045000F11D958D5A968C915A978F5F8F735A968E
:100460008C93292F30E0C9010895CF93DF93EC01DD
:10047000888D882361F419C08C9185FF0AC0E889B2
:10048000F989808185FF05C0CE010E946701AA8994
:10049000BB898C9185FD05C0E889F989808186FD3D
:1004A00004C00FB607FEE8CFF4CFDF91CF910895D7
:1004B0000F931F93CF93DF93EC01062F9B8D8C8DB1
:1004C000981791F5E889F989808185FF2DC0EE891B
:1004D000FF896083E889F9898081806480831DC0F9
:1004E0000FB607FC08C0E889F989808185FF03C041
:1004F000CE010E9467018C8D181791F38B8DFE0140
:10050000E80FF11DE35AFF4F00831B8FEA89FB8937
:1005100080818062808381E0888F81E090E0DF913C
:10052000CF911F910F9108951B8D1F5F1F73E3CF14
:1005300080E293E0892B51F080E090E0892B31F04C
:100540000E942003882311F00E94000008951F924A
:100550000F920FB60F9211242F938F939F93EF93C7
:10056000FF93E0914201F0914301808182FD16C02A
:10057000E0914801F0914901208190914B019F5FEA
:100580009F7380914C01981771F0E0914B01F0E05E
:10059000EE5CFE4F258F90934B0105C0E091480122
:1005A000F0914901E081FF91EF919F918F912F91FF
:1005B0000F900FBE0F901F9018951092350110925A
:1005C000340188EE93E0A0E0B0E080933601909390
:1005D0003701A0933801B093390186E191E09093FF
:1005E00033018093320185EC90E090933F0180933A
:1005F0003E0184EC90E0909341018093400180ECB7
:1006000090E0909343018093420181EC90E09093BD
:1006100045018093440182EC90E0909347018093E0
:10062000460186EC90E09093490180934801109236
:100630004B0110924C0110924D0110924E01089501
:1006400082E391E00E94FB0120E0892B09F021E088
:10065000822F08951F920F920FB60F9211242F939D
:100660003F934F935F936F937F938F939F93AF933A
:10067000BF93EF93FF9382E391E00E946701FF91A4
:10068000EF91BF91AF919F918F917F916F915F910A
:100690004F913F912F910F900FBE0F901F90189583
:1006A000CF92DF92EF92FF920F931F93CF93DF933E
:1006B0007C016B018A01C0E0D0E00FC0D6016D91D2
:1006C0006D01D701ED91FC910190F081E02DC70102
:1006D0000995C80FD91F015010400115110571F778
:1006E000CE01DF91CF911F910F91FF90EF90DF909E
:1006F000CF900895EF92FF920F931F938C01DC012E
:10070000ED91FC910190F081E02D6DE009957C0167
:10071000D801ED91FC910190F081E02DC8016AE0D3
:1007200009959C012E0D3F1DC9011F910F91FF904E
:10073000EF900895CF93DF93EC016115710519F4E3
:1007400020E030E00FC0DB010D900020E9F71197A9
:10075000A61BB70BE881F9810280F381E02DAD0182
:1007600009959C01C901DF91CF9108954F925F9245
:100770007F928F929F92AF92BF92CF92DF92EF9231
:10078000FF920F931F93DF93CF93CDB7DEB7A1975F
:100790000FB6F894DEBF0FBECDBF2C01742ECB0177
:1007A000223008F42AE019A231E2C32ED12CCC0E5B
:1007B000DD1E822E9924AA24BB24672D752FA50146
:1007C00094010E94CF0679018A01C801B701A501F1
:1007D00094010E94B006472D461B0894C108D10819
:1007E0004A3014F4405D01C0495CF6014083E114D5
:1007F000F1040105110521F07E2C5F2DC801DDCF2C
:10080000C201B6010E949A03A1960FB6F894DEBF0A
:100810000FBECDBFCF91DF911F910F91FF90EF9051
:10082000DF90CF90BF90AF909F908F907F905F9020
:100830004F900895CF92DF92EF92FF920F931F9304
:10084000CF93DF93EC016A017B012115310541F45F
:10085000E881F9810190F081E02D642F09951FC096
:100860002A303105D1F477FF17C0E881F981019072
:10087000F081E02D6DE209958C0144275527BA01DE
:100880004C195D096E097F09CE012AE00E94B6036A
:100890009801280F391F04C02AE00E94B6039C016A
:1008A000C901DF91CF911F910F91FF90EF90DF90E1
:1008B000CF900895CF92DF92EF92FF920F931F9304
:1008C0006C017B019A010027F7FC0095102FB801FD
:1008D000A7010E941A048C01C6010E947A03080F26
:1008E000191FC8011F910F91FF90EF90DF90CF90DB
:1008F00008950E949A030895CF93DF930E94DD0428
:100900000E94D200C8E9D2E00E9496002097E1F34D
:100910000E949802F9CF1F920F920FB60F921124E6
:100920002F933F938F939F93AF93BF938091D30166
:100930009091D401A091D501B091D6013091D70109
:100940000196A11DB11D232F2D5F2D3720F02D57AE
:100950000196A11DB11D2093D7018093D3019093DF
:10096000D401A093D501B093D6018091CF0190918D
:10097000D001A091D101B091D2010196A11DB11D6C
:100980008093CF019093D001A093D101B093D20175
:10099000BF91AF919F918F913F912F910F900FBE7B
:1009A0000F901F901895019739F0880F991F880FA5
:1009B000991F02970197F1F70895789484B58260A2
:1009C00084BD84B5816084BD85B5826085BD85B5F3
:1009D000816085BDEEE6F0E0808181608083E1E8A2
:1009E000F0E01082808182608083808181608083DA
:1009F000E0E8F0E0808181608083E1EBF0E08081DD
:100A000084608083E0EBF0E0808181608083EAE7AE
:100A1000F0E0808184608083808182608083808137
:100A2000816080838081806880831092C1000895F6
:100A3000EF92FF920F931F93CF93DF937B018C0173
:100A40003FB7F8948091CF019091D001A091D1014E
:100A5000B091D20126B5A89B05C02F3F19F0019691
:100A6000A11DB11D3FBFBA2FA92F982F8827820F34
:100A7000911DA11DB11D52E0880F991FAA1FBB1F18
:100A80005A95D1F7EC0130C00E94AF063FB7F894F9
:100A90008091CF019091D001A091D101B091D2016C
:100AA00026B5A89B05C02F3F19F00196A11DB11DC9
:100AB0003FBFBA2FA92F982F8827820F911DA11D04
:100AC000B11D32E0880F991FAA1FBB1F3A95D1F7BD
:100AD0008C1B9D0B885E9340B8F20894E108F108E6
:100AE00001091109C851DC4FE114F1040105110598
:100AF00059F6DF91CF911F910F91FF90EF900895DC
:100B0000CF93DF93482F50E0CA0186569F4FFC01D8
:100B100034914A575F4FFA018491882369F190E03C
:100B2000880F991FFC01E859FF4FA591B491FC0172
:100B3000EE58FF4FC591D491662351F42FB7F89426
:100B40008C91932F909589238C93888189230BC056
:100B5000623061F42FB7F8948C91932F909589238C
:100B60008C938881832B88832FBF06C09FB7F8940E
:100B70008C91832B8C939FBFDF91CF910895482F49
:100B800050E0CA0182559F4FFC012491CA0186564C
:100B90009F4FFC0194914A575F4FFA0134913323E0
:100BA00009F440C0222351F1233071F0243028F49D
:100BB0002130A1F0223011F514C02630B1F02730D9
:100BC000C1F02430D9F404C0809180008F7703C035
:100BD000809180008F7D8093800010C084B58F77D6
:100BE00002C084B58F7D84BD09C08091B0008F772D
:100BF00003C08091B0008F7D8093B000E32FF0E0C0
:100C0000EE0FFF1FEE58FF4FA591B4912FB7F89448
:100C1000662321F48C919095892302C08C91892BB5
:100C20008C932FBF08958F929F92AF92BF92CF92D5
:100C3000DF92EF92FF920F931F93CF93DF93A82F32
:100C4000B0E0CD0186569F4FFC018490AA57BF4F5C
:100C5000FD018491662311F4992401C0982C6FEF53
:100C6000A62E6FEFB62E6FEFC62E6FE0D62EA22205
:100C7000B322C422D522682F70E0660F771F645814
:100C80007F4FEE24FF248701FB01A591B4910BC097
:100C9000EA14FB040C051D0509F44EC00894E11C80
:100CA000F11C011D111D8C918821891589F30CC03F
:100CB000EA14FB040C051D0509F43EC00894E11C70
:100CC000F11C011D111D03C0FB01A591B4918C9174
:100CD0008821891569F720E030E040E050E0FB0111
:100CE000C591D4910FC0DA01C9018E0D9F1DA01FBF
:100CF000B11F8A159B05AC05BD05F1F02F5F3F4F75
:100D00004F4F5F4F88818821891569F3CA01B90166
:100D100025E130E040E050E00E94B0069B01AC01CC
:100D2000205F3F4F4F4F5F4F84E056954795379573
:100D300027958A95D1F704C020E030E040E050E0EC
:100D4000B901CA01DF91CF911F910F91FF90EF90F0
:100D5000DF90CF90BF90AF909F908F9008950895AF
:100D6000629FD001739FF001829FE00DF11D649F8F
:100D7000E00DF11D929FF00D839FF00D749FF00D1B
:100D8000659FF00D9927729FB00DE11DF91F639FBC
:100D9000B00DE11DF91FBD01CF0111240895A1E29D
:100DA0001A2EAA1BBB1BFD010DC0AA1FBB1FEE1FE5
:100DB000FF1FA217B307E407F50720F0A21BB30B30
:100DC000E40BF50B661F771F881F991F1A9469F7AC
:100DD00060957095809590959B01AC01BD01CF0108
:100DE000089597FB092E05260ED057FD04D0D7DFB6
:100DF0000AD0001C38F450954095309521953F4F0E
:100E00004F4F5F4F0895F6F79095809570956195D7
:100E10007F4F8F4F9F4F0895EE0FFF1F0590F49166
:080E2000E02D0994F894FFCFC6
:100E280044697374616E63696120656D20434D3A4E
:100E380020000000000058025003FB0117020702BF
:020E4800350271
:00000001FF
